:100000000C9401020C9429020C9429020C942902EC
:100010000C9429020C9429020C9429020C942902B4
:100020000C9429020C9429020C9429020C942902A4
:100030000C9429020C9429020C9429020C94290294
:100040000C94DB210C9429020C944B220C94252255
:100050000C9429020C9429020C9429020C94290274
:100060000C9429020C9429023D3D3D3D3D3D3D3D12
:100070003D3D3D3D3D3D3D3D3D3D3D3D3D3D0045E5
:100080006D61696C2020202020202020203A2061F2
:100090006468656C696140676D61696C2E636F6D42
:1000A0000054616E6767616C204C61686972203A28
:1000B00020313520466562727561726920323030B8
:1000C00034004E494D2020202020202020202020B8
:1000D0003A2031343632323030323235004E616DB2
:1000E00061202020202020202020203A2041646808
:1000F000656C69612053686166697261204C696151
:100100006E6A61726900416E67676F746120323A8E
:1001100000456D61696C2020202020202020203A9D
:100120002067696C616E6761647940676D61696CB5
:100130002E636F6D0054616E6767616C204C61685F
:100140006972203A203232204F6B746F62657220E0
:1001500032303032004E494D2020202020202020F7
:100160002020203A203134363232303030333900DA
:100170004E616D61202020202020202020203A2068
:1001800047696C616E6720416479204C616B736FC5
:100190006E6F00416E67676F746120313A00446989
:1001A00062756174206F6C65683A204B656C6F6D89
:1001B000706F6B003D3D3D2044415441204D41480E
:1001C000415349535741203D3D3D00495020416432
:1001D0006472657373203A200020266465673B4390
:1001E0003C2F68333E3C2F626F64793E3C2F68742D
:1001F0006D6C3E003C68333E53756875204C4D3342
:10020000353A2000485454502F312E3120323030AE
:10021000204F4B0D0A436F6E74656E742D547970C8
:10022000653A20746578742F68746D6C0D0A0D0A38
:100230003C68746D6C3E3C686561643E3C746974F6
:100240006C653E44617461204D61686173697377C8
:10025000613C2F7469746C653E3C2F686561643E37
:100260003C626F64793E3C68323E446962756174F9
:10027000206F6C65683A204B656C6F6D706F6B3CDE
:100280002F68323E3C68333E416E67676F74612071
:10029000313C2F68333E3C703E4E616D613A2047E1
:1002A000696C616E6720416479204C616B736F6E7D
:1002B0006F3C2F703E3C703E4E494D3A20313436F3
:1002C000323230303033393C2F703E3C703E546116
:1002D0006E6767616C204C616869723A2032322027
:1002E0004F6B746F62657220323030323C2F703E3B
:1002F0003C703E456D61696C3A2067696C616E6760
:1003000061647940676D61696C2E636F6D3C2F701D
:100310003E3C68333E416E67676F746120323C2F0C
:1003200068333E3C703E4E616D613A2041646865C1
:100330006C69612053686166697261204C69616E05
:100340006A6172693C2F703E3C703E4E494D3A20C6
:10035000313436323230303232353C2F703E3C70E0
:100360003E54616E6767616C204C616869723A2027
:1003700031352046656272756172692032303034E1
:100380003C2F703E3C703E456D61696C3A20616463
:1003900068656C696140676D61696C2E636F6D3C67
:1003A0002F703E0020430053756875203A200000EE
:1003B000000000250028002B0000000008000201BA
:1003C000000003040700000000000000000000001F
:1003D00000240027002A00010204081020408001A8
:1003E000020408102001020408102004040404047C
:1003F00004040402020202020203030303030300D3
:10040000C82211241FBECFEFD8E0DEBFCDBF11E060
:10041000A0E0B1E0E8E6F0E502C005900D92AE384C
:10042000B107D9F725E0AEE8B1E001C01D92A93CC3
:10043000B207E1F712E0C1E0D2E004C02197FE016B
:100440000E941C28C030D107C9F70E9461230C9478
:1004500032280C94000090E0FC01E754FC4F2491FA
:10046000FC01E952FC4F3491FC01E551FC4FE49151
:10047000EE23C9F0222339F0233001F1A8F4213012
:1004800019F1223029F1F0E0EE0FFF1FE155FC4F8A
:10049000A591B4918FB7F894EC91611126C0309575
:1004A0003E233C938FBF08952730A9F02830C9F030
:1004B000243049F7809180008F7D03C080918000B7
:1004C0008F7780938000DFCF84B58F7784BDDBCFBB
:1004D00084B58F7DFBCF8091B0008F778093B00083
:1004E000D2CF8091B0008F7DF9CF3E2BDACFCF9362
:1004F000DF9390E0FC01E952FC4F249185519C4F21
:10050000FC0184918823D1F090E0880F991FFC01B1
:10051000E353FC4FA591B491FC01E155FC4FC5910B
:10052000D49161110EC09FB7F8948C91E22FE095A1
:100530008E238C932881E223E8839FBFDF91CF91A4
:1005400008958FB7F894EC91E22BEC938FBFF6CF20
:100550003FB7F8948091620290916302A091640287
:10056000B091650226B5A89B05C02F3F19F00196F2
:10057000A11DB11D3FBFBA2FA92F982F8827BC01FD
:10058000CD01620F711D811D911D42E0660F771F25
:10059000881F991F4A95D1F708958F929F92AF9225
:1005A000BF92CF92DF92EF92FF924B015C010E94CB
:1005B000A8026B017C010E94A8026C197D098E09BA
:1005C0009F09683E734081059105A8F321E0821AD6
:1005D0009108A108B10888EEC80E83E0D81EE11C7E
:1005E000F11C81149104A104B10429F7FF90EF904C
:1005F000DF90CF90BF90AF909F908F9008952FB7CE
:10060000F89460915E0270915F0280916002909117
:1006100061022FBF0895DC01ED91FC910190F08102
:10062000E02D0994EF92FF920F931F93CF93DF93E6
:100630008C017B01D0E0C0E0F701EC0FFD1F64915D
:10064000662361F0D801ED91FC910190F081E02DDD
:10065000C8010995892B11F02196EECFCE01DF91CB
:10066000CF911F910F91FF90EF900895AF92BF929D
:10067000CF92DF92EF92FF920F931F93CF93DF936E
:100680006C017B018B01040F151FEB015E01AE189D
:10069000BF08C017D10759F06991D601ED91FC91BF
:1006A0000190F081E02DC6010995892B79F7C501EC
:1006B000DF91CF911F910F91FF90EF90DF90CF903E
:1006C000BF90AF900895FC01538D448D252F30E0ED
:1006D000842F90E0821B930B541710F0CF9608954F
:1006E00001970895FC01918D828D981761F0A28D7C
:1006F000AE0FBF2FB11D5D968C91928D9F5F9F7342
:10070000928F90E008958FEF9FEF0895FC01918DF7
:10071000828D981731F0828DE80FF11D858D90E064
:1007200008958FEF9FEF0895FC01918D228D892F01
:1007300090E0805C9F4F821B91098F7399270895E9
:1007400086E994E00E94940321E0892B09F420E0DB
:10075000822F089580E090E0892B29F00E94A00369
:1007600081110C9400000895FC01A48DA80FB92FED
:10077000B11DA35ABF4F2C91848D90E001968F73C9
:100780009927848FA689B7892C93A089B1898C91E8
:10079000837080648C93938D848D981306C0028837
:1007A000F389E02D80818F7D80830895EF92FF9201
:1007B0000F931F93CF93DF93EC0181E0888F9B8D84
:1007C0008C8D98131AC0E889F989808185FF15C03E
:1007D0009FB7F894EE89FF896083E889F989808161
:1007E0008370806480839FBF81E090E0DF91CF9130
:1007F0001F910F91FF90EF900895F62E0B8D10E052
:100800000F5F1F4F0F731127E02E8C8D8E110CC0C0
:100810000FB607FCFACFE889F989808185FFF5CF0B
:10082000CE010E94B403F1CFEB8DEC0FFD2FF11D33
:10083000E35AFF4FF0829FB7F8940B8FEA89FB8948
:1008400080818062CFCFCF93DF93EC01888D8823A6
:10085000B9F0AA89BB89E889F9898C9185FD03C023
:10086000808186FD0DC00FB607FCF7CF8C9185FF08
:10087000F2CF808185FFEDCFCE010E94B403E9CF96
:10088000DF91CF9108958823E9F0AAE7B3E025E04E
:1008900014969C91149789130DC095E0899FF001DF
:1008A0001124E658FC4F848114968C931382128293
:1008B00014820895992331F0929FD0011124A658F3
:1008C000BC4FE6CF08958823A1F090918B04992323
:1008D00081F08F3F29F480918704909188040895D6
:1008E00095E0899FF0011124E658FC4F82819381A5
:1008F000089590E080E008958EBD00000DB407FEDD
:10090000FDCF8EB508951F93CF93DF93182FC62F79
:10091000D42F60E08AE00E942B028C2F8F71812BF4
:100920000E947C048D2F0E947C0461E08AE0DF91AC
:10093000CF911F910C942B02CF93DF93D82FD076B9
:10094000909100019D17A1F0C82F43E06FE180EA6C
:100950000E9483044C2F50E085E0559547958A9579
:10096000E1F743706FE180E80E948304D0930001B7
:10097000DF91CF9108951F93CF93DF93C82F162F48
:10098000D72F0E949C04412F6C2F80E40E94830487
:1009900061E06C0F4D2F80E4DF91CF911F910C949B
:1009A0008304EF92FF920F931F93CF93DF938B01FA
:1009B0007A018F3F59F095E0899FE0011124C658D4
:1009C000DC4F68817981600F711F0FC060918504D1
:1009D00070918604600F711FC5E8D4E0611588E04E
:1009E000780778F37850C5E8D4E080E00E94BB0433
:1009F0008A819B81801B910BE816F90608F4C701D8
:100A0000DF91CF911F910F91FF90EF900895EF929A
:100A1000FF920F931F93CF93DF93EB0170E060E0A1
:100A20000E94D1048C0160E08AE00E942B028AE3DC
:100A30000E947C047E01E00EF11EEC16FD0629F0FA
:100A400080E00E947C048993F8CF61E08AE00E94F4
:100A50002B02C801DF91CF911F910F91FF90EF9072
:100A6000089560918304709184046115710529F0E3
:100A7000615071098CE00C94BB046FEF77E0FACF02
:100A8000CF93DF93C82FD62F0E949C044D2F6C2F3D
:100A900080E4DF91CF910C948304CF93DF93D82F20
:100AA000C62F60E08AE00E942B028C2F8F718D2B65
:100AB0000E947C04C7FF03C080E00E947C0480E0A9
:100AC0000E947C04C82F61E08AE00E942B028C2FD8
:100AD000DF91CF910895CF93C82F0E949C046C2F73
:100AE00080E0CF910C944D05CF93DF93EB01682FFD
:100AF00084ED0E944005BE0186ED0E94BB04CFE05C
:100B0000D0E08AEE0E946B0580FF08C06AE070E0CA
:100B100080E090E00E94CD02219799F7DF91CF917C
:100B20000895CF93C62FBC0182E00E94BB0460E011
:100B30008AE00E942B028AE70E947C048C2F0E948C
:100B40007C0461E08AE0CF910C942B02CF93BC012E
:100B500080E00E94BB0460E08AE00E942B028AE3EE
:100B60000E947C0480E00E947C04C82F61E08AE03F
:100B70000E942B028C2FCF910895CF92DF92EF929B
:100B8000FF920F931F93CF93DF936C018B01413042
:100B9000510579F4CB010E94A605682FC601DF91AB
:100BA000CF911F910F91FF90EF90DF90CF900C9419
:100BB0009105EA01C60FD71F7E0181E0E81AF1080E
:100BC00080E10E94BB04B60184E10E94BB040115D0
:100BD000184048F4E11488E0F80628F07E0181E02E
:100BE000E81A88E0F80AB70182E10E94BB0440E1FC
:100BF0006FE180EA0E94830440E26FE180E80E9496
:100C000083046FE180E00E944D0585FF07C061E02D
:100C100070E080E090E00E94CD02F3CFDF91CF91B1
:100C20001F910F91FF90EF90DF90CF900895CF929A
:100C3000DF92EF92FF920F931F93CF93DF938C017C
:100C400060917A0370917B036150784EC12C98E1DA
:100C5000D92EEAE7F3E020E0D0E0C0E045E03481BF
:100C6000CB01332341F0439FC001112486589C4F90
:100C7000DC018D919C91E080F1808E199F090280AA
:100C8000F381E02D8E1B9F0B8017910799F4B5E03F
:100C90002B9FE0011124C658DC4FEFE7F3E081E021
:100CA00022813381232B09F453C035968F5F85331E
:100CB000B9F744C00817190748F48C159D0530F49E
:100CC000249FE0011124C658DC4F6C01311121C072
:100CD000209719F7CAE7D3E085E0D82E8C812881C8
:100CE0003981EA80FB808823D9F0E20EF31E8D9DC6
:100CF000E0011124C658DC4F68817981E616F706B9
:100D000069F34A815B81C7010E94BD05F982E882CF
:100D1000E5CF349FF0011124E658FC4F232F9FCFDD
:100D200080917A0390917B03821B930B8E199F090C
:100D30008150984E8017910708F0AFCF80E0DF9187
:100D4000CF911F910F91FF90EF90DF90CF9008957A
:100D5000288139814A815B81240F351F31832083AB
:100D6000138302839C8194838C83E9CF0F931F9319
:100D7000DB01E42FA80190E0EF3FE1F065E0E69FA2
:100D8000F0011124E658FC4F60817181620F731FDE
:100D900001C0785025E0289FF001299FF00D112413
:100DA000E658FC4F808191818A0F9B1F1F910F9104
:100DB0000C94BD056091850470918604620F731FC9
:100DC0006115E8E07E0728F7E5E8F4E0DDCFCF9293
:100DD000DF92EF92FF920F931F93CF93DF936B01FC
:100DE0008A01790195E0899FE0011124C658DC4F02
:100DF000688179816C0D7D1D82E00E94BB040A80B0
:100E0000DB81C02DCC19DD09EC16FD0608F4E701E5
:100E100060E08AE00E942B028AE70E947C0478014D
:100E2000EC0EFD1EE016F10631F0F80181918F0104
:100E30000E947C04F7CF61E08AE00E942B02CE0181
:100E4000DF91CF911F910F91FF90EF90DF90CF90A6
:100E50000895DC011C96ED91FC91309731F086816C
:100E60009781982789279827089590E080E0089532
:100E7000CF93DF93FC01EB01AC85BD851097A9F002
:100E800012969C91129713968C9113973C91119600
:100E90002C914DE751E05183408332832383948327
:100EA0008583CF01DF91CF9108958DE791E0918304
:100EB00080831282138214821582F3CFCF93DF9343
:100EC0001F92CDB7DEB7DC01ED91FC91048CF58D5E
:100ED000E02D41E050E0BE016F5F7F4F099518168D
:100EE000190634F4898190E00F90DF91CF91089535
:100EF0008FEF9FEFF9CFCF93DF93EC018A8988239F
:100F000079F09A01AB016E857F850E94E7062E85F8
:100F10003F85280F391F3F872E87DF91CF91089596
:100F200090E080E0FACFCF93DF931F92CDB7DEB78A
:100F30006983DC01ED91FC910280F381E02D41E0B9
:100F400050E0BE016F5F7F4F09950F90DF91CF9109
:100F5000089580E00895CF93DF931F92CDB7DEB759
:100F60006983DC01ED91FC910280F381E02D41E089
:100F700050E0BE016F5F7F4F09950F90DF91CF91D9
:100F80000895762767277627DC0115967C936E9364
:100F90001497ED91FC910084F185E02D099408955A
:100FA00090E080E00895FB0141505109460F571F22
:100FB000E417F50778F4208130E0322F2227618191
:100FC000260F311D820F931F8217930708F4019695
:100FD0003296EECFE417F50751F4208130E0322F3E
:100FE0002227820F931F8217930708F40196089512
:100FF000CF92DF92EF92FF920F931F93CF93DF93E5
:10100000C82FE090C101F12CFE2CEE244091C201CA
:101010004451550BE40EF51E48E050E06BEC71E0D6
:10102000C7018C0F911D0E94D30708E0C13129F040
:101030000091DF01069506950C7310E0A80163EDA1
:1010400071E00E94D307EC010E151F0508F049C09E
:10105000A701401B510B8091900162E270E081FF7B
:1010600002C063E270E0600F711F809191010E94E5
:10107000D10401977C0160E08AE00E942B028AE3A0
:101080000E947C04D12CC12CCE14DF04B8F480E083
:101090000E947C04082F10E0102F002780E00E949F
:1010A0007C04800F912F911DC80FD91FC817D90735
:1010B00008F4219682E0C80ED11CE6CFEC14FD04A2
:1010C00061F480E00E947C0490E0982F8827C80F8C
:1010D000D91FC817D90708F4219661E08AE00E9459
:1010E0002B029C2F8D2FCD2B11F48FEF9FEFDF91D3
:1010F000CF911F910F91FF90EF90DF90CF900895C7
:1011000044E150E06FEB71E090E080E00E94D30793
:10111000009721F098278927982708958FEF9FEF50
:101120000895FF920F931F93CF93DF93C091900187
:10113000C1FF66C020918E0130E041EB51E061E0DB
:1011400070E0809191010E94E706CD7FC0939001ED
:10115000F090910180918B04882309F444C085E0CC
:10116000F89EF0011124E658FC4F00811181C281E4
:10117000D381C00FD11F60E0C8010E949105B80162
:1011800084E00E94BB04BE016850710986E00E94A1
:10119000BB041AE0249740E86FE180E80E948304D2
:1011A00040E86FE180EA0E9483044AE06CE180EA53
:1011B0000E94830448E06FE180E80E9483048CE190
:1011C0000E946B05082F8A70D1F348E06FE180EA36
:1011D0000E94830401FF2DC0CE010E94A60585FF59
:1011E00002C01150C1F6C0E08F2D0E94430410923E
:1011F00091018C2FDF91CF911F910F91FF90089556
:10120000C091A901D091AA01CE01089621F41092B3
:101210009101C0E0EECF0E941706809391018823D0
:10122000C1F39E0141EB51E061E070E00E94E706EE
:101230008FCFC1E0D9CF0F931F93CF93DF93EC01F2
:101240008C010B5F1F4F89910E944304FE0131976F
:101250001082C017D107B9F7DF91CF911F910F917D
:101260000895CF93DF93EC0188810E944304FE012F
:10127000CE01049621812193E817F907D9F71C8242
:10128000DF91CF910895CF93DF93EC01E881F9814D
:10129000008CF18DE02D0995882339F08C859D8592
:1012A0000296DF91CF910C941B09DF91CF910895A5
:1012B0000F931F93CF93DF931F92CDB7DEB78C01AF
:1012C000DC01ED91FC91008CF18DE02D09958823D6
:1012D000B1F0D8011C96ED91FC918281882379F0C0
:1012E00041E050E0BE016F5F7F4F0E94070589819A
:1012F00090E00F90DF91CF911F910F9108958FEFA4
:101300009FEFF7CFCF93DF931F92CDB7DEB7DC010E
:10131000ED91FC910288F389E02D41E050E0BE019F
:101320006F5F7F4F09951816190634F4898190E094
:101330000F90DF91CF9108958FEF9FEFF9CF6F92CC
:101340007F928F929F92AF92BF92CF92DF92EF9255
:10135000FF920F931F93CF93DF938C014B01EA0110
:10136000DC01ED91FC91008CF18DE02D0995882335
:1013700009F47BC0D8011C96ED91FC9182818823F1
:1013800009F476C07E018EE1682EBE016E197F09D8
:10139000680D791DD8011C96ED91FC91A701828101
:1013A0000E9407056C01F801A484B584D50112964A
:1013B0007C90872D0E946304C816D906E9F5EC18C5
:1013C000FD08C50102960E943109F801A485B58582
:1013D000EC916E9EF0011124E750FD4F818D84FF4A
:1013E00009C011968C911197982F967019F4886006
:1013F00011968C93D8011C96ED91FC911D978281DA
:1014000081112EC0818182FF05C011821D961C9220
:101410001E921C97CE018E199F09DF91CF911F91CB
:101420000F91FF90EF90DF90CF90BF90AF909F9083
:101430008F907F906F900895B5E07B9EF00111240E
:10144000E658FC4F808191818C0D9D1D9183808396
:10145000828193818C199D0993838283CE01DDCF94
:10146000E114F10409F091CFF9CF8FEF9FEFD5CFC1
:1014700090E080E0D2CFEF92FF920F931F93CF9333
:10148000DF93EC01E881F981008CF18DE02D099565
:101490008823E1F00C851D85780182E0E80EF11CBF
:1014A000095F1F4FD0E0C0E0F70181917F010E94EA
:1014B0006304C80FD91FE016F106B1F7CE01DF9122
:1014C000CF911F910F91FF90EF900895D0E0C0E071
:1014D000F5CFFC01448555854115510551F0FB01BF
:1014E000248535852115310521F081E04217530708
:1014F00009F080E00895DC011C96ED91FC91309795
:1015000031F08281811105C081818170089580E070
:10151000089581E00895DC01ED91FC91028CF38D3A
:10152000E02D099591E089270895DC01ED91FC916A
:10153000048CF58DE02D0994CF92DF92EF92FF920B
:101540000F931F93CF93DF93CDB7DEB7E0970FB61E
:10155000F894DEBF0FBECDBFFC0182819381A481D0
:10156000B5818DA79EA7AFA7B8AB21E028ABCDA4CE
:10157000DEA4EFA4F8A8CB8EDC8EED8EFE8EFB01F0
:10158000428153816481758149A35AA36BA37CA3D3
:101590008FA398A7A9A7BAA72E8F0B8D1C8D2D8D71
:1015A0003E8D0D8B1E8B2F8B388F4F87588B698B01
:1015B0007A8B89879A87AB87BC870E94FF02665027
:1015C0007F4F8F4F9F4F609392047093930480934B
:1015D00094049093950480918B04811149C061E03B
:1015E0008AE00E94770261E08AE00E942B021FB726
:1015F000F89480918A04811127C0E5EFF3E084918B
:10160000E1EEF3E09491E82FF0E0EE0FFF1FE353DB
:10161000FC4FA591B491EC91E92321F461E08AE0BB
:101620000E942B0261E08AE00E9477028CB5806103
:101630008CBD8CB580648CBD61E08DE00E9477022A
:1016400061E08BE00E94770280918A048F5F809333
:101650008A041FBF8CB58C7F8CBD8DB581608DBD1C
:1016600082E70E946B058F3F09F441C080938B0491
:1016700010928604109285041092880410928704B8
:10168000EAE7F3E089E091E0DF019C011D9221503F
:101690003040E1F781E098E090937B0380937A03F8
:1016A0004FEF60E08FEF0E94830462E070E080E023
:1016B00090E00E94CD0262E370E080E090E00E9442
:1016C000CD02109284041092830400E110E06DE1D9
:1016D00080E00E944D0581110DC00150110951F0AB
:1016E0006AE070E080E090E00E94CD02F0CF1092BE
:1016F0008B04BECF70E060E088E00E94BB0470E025
:1017000060E08CE00E94BB046FEF77E08AE00E940B
:10171000BB0461EB88E30E9440056FE370E388E25D
:101720000E94BB0469EF77EF80E30E94BB046DE089
:1017300070E080EC0E94BB0442E362EC80E80E940F
:10174000830462E17CE086EC0E94BB0462E184ECED
:101750000E9440056CED75E08AEC0E94BB0460912C
:10176000010184EE0E9440056091020185EE0E9415
:1017700040056091030182EE0E94400560910401E2
:1017800083EE0E9440056091050180EE0E944005B5
:101790006091060181EE0E94400560E071E080E109
:1017A0000E9474058FE10E949C0440EC6BE180E88C
:1017B0000E94830444E06FE180E80E94830466E7AE
:1017C00074E084E10E9474058091010180938C048F
:1017D0008091020180938D048091030180938E0497
:1017E0008091040180938F0480910501809390047F
:1017F00080910601809391041092720310927103FC
:101800001092740310927303109276031092750372
:101810001092780310927703109212031092300303
:1018200010924E0310926C0380E094E09093F802C3
:101830008093F7021092D0021092CF021092DB0236
:101840001092DA021092E6021092E5021092F10272
:101850001092F00284E0809379031092CA029BE018
:1018600024E08091CA02883008F440C02D893E8966
:101870008F894F85588969897A89EB85FC85A98587
:10188000BA85B0936F02A0936E02F0937102E09359
:10189000700230936B0220936A0290E09160909303
:1018A0006D0280936C028FEF9FEF9093670280939D
:1018B00066028FEF90E090936902809368024093F4
:1018C0009405509395056093960570939705E0965F
:1018D0000FB6F894DEBF0FBECDBFDF91CF911F9141
:1018E0000F91FF90EF90DF90CF900895899FF001C6
:1018F0001124EE58FD4FDF01322F1D923A95E9F782
:101900008F5F8093CA02ADCF0F931F93CF93DF9366
:10191000DC012091F7023091F8022F5F3F4F211533
:101920008DE7380710F020E030E1522F432FEBEC29
:10193000F2E0EF0180E08430A1F43093F8022093CC
:10194000F70230E020E02430310599F484E0809300
:101950007903F0E0E0E0CF01DF91CF911F910F918B
:1019600008950C811D818F5F2B960417150719F7B9
:10197000D4CFC481D581C90101963B96CD2B09F501
:10198000209379038BE0829FF001839FF00D112457
:10199000E553FD4F5583448377836683109799F40D
:1019A00084E0DF011D928A95E9F78BE0829FD001E8
:1019B000839FB00D1124A553BD4F80E418968C93DE
:1019C000CACF9C01C0CF8D919C9111979183808348
:1019D00012968D919C9193838283E7CF0F931F93EF
:1019E000CF93DF93EC018B018C859D85892B41F48E
:1019F00070E060E090E080E00E94840C9D878C871E
:101A0000EC85FD8580E0309749F0102701271027ED
:101A1000158304832E96D287C18781E0DF91CF9111
:101A20001F910F910895CF93DF93DC011C96ED91E8
:101A3000FC913097B1F0EC01158214821286118668
:101A40001D861C8689890E94430488890E9443045C
:101A50008A890E9443042E9686E0FE0111928A959F
:101A6000E9F7DF91CF910895FC011382128288EE8D
:101A700093E0A0E0B0E084839583A683B7838BE0F6
:101A800091E091838083158614863E9686E0DF017F
:101A90001D928A95E9F70895FB0101900020E9F76E
:101AA0003197AF01461B570BDC01ED91FC91028091
:101AB000F381E02D09948F929F92AF92BF92EF92A3
:101AC000FF920F931F93CF93DF93CDB7DEB7A1970C
:101AD0000FB6F894DEBF0FBECDBF7C01FA01CB017B
:101AE00019A2223008F42AE08E010F5D1F4F822ECA
:101AF000912CB12CA12CBF01A50194010E94BE25FF
:101B0000F901CA016A300CF5605DD8016E938D0150
:101B1000232B242B252B79F790E080E0109721F0E0
:101B2000BD01C7010E944C0DA1960FB6F894DEBF0F
:101B30000FBECDBFDF91CF911F910F91FF90EF901E
:101B4000BF90AF909F908F900895695CDECF6FE754
:101B500071E00C944C0D0F931F93CF93DF93EC0126
:101B60000E9412038C01CE010E94A70D800F911FCD
:101B7000DF91CF911F910F9108952F923F924F9235
:101B80005F926F927F928F929F92AF92BF92CF920D
:101B9000DF92EF92FF921F93CF93DF93EC016A01E4
:101BA0007B01722EAB019601CB01B6010E94172872
:101BB00062E871E0811126C046015701E894B7F848
:101BC0002FEF3FEF4FE75FE7C501B4010E941728F1
:101BD00081110CC02FEF3FEF4FE75FE7C501B40164
:101BE0000E944D2666E871E0181664F02FEF3FEF73
:101BF0004FE75FE4C701B6010E94A5271816B4F4A9
:101C00006AE871E0CE01DF91CF911F91FF90EF90D4
:101C1000DF90CF90BF90AF909F908F907F906F900C
:101C20005F904F903F902F900C944C0D2FEF3FEF13
:101C30004FE75FECC701B6010E944D2687FDE0CF5C
:101C400020E030E0A901C701B6010E944D26312CE9
:101C5000212C87FF09C06DE2CE010E940B031C01FD
:101C6000F7FAF094F7F8F09410E060E070E080E0AC
:101C70009FE3711641F020E030E040E251E40E9421
:101C800052261F5FF6CFA70196010E94E1252B0186
:101C90003C010E94C4264B015C012AE0BC01A40166
:101CA000CE010E945B0D7C01E20CF31C1123C1F1FB
:101CB000C501B4010E94F3269B01AC01C301B2012E
:101CC0000E94E0254B015C016EE2CE010E940B03F5
:101CD000E80EF91E115020F120E030E040E251E41E
:101CE000C501B4010E94AA272B013C010E94C42611
:101CF0004B01B12CA12C2AE0B501A401CE010E9418
:101D00005B0DE80EF91EC501B4010E94F3269B018C
:101D1000AC01C301B2010E94E0254B015C01DACFA6
:101D2000C701DF91CF911F91FF90EF90DF90CF908F
:101D3000BF90AF909F908F907F906F905F904F90EB
:101D40003F902F9008958F929F92AF92BF92CF9223
:101D5000DF92EF92FF920F931F93CF93DF937C015B
:101D60008B016C0182E0C80ED11C4701E5E08E0EAC
:101D7000911CD0E0C0E0F60141916F0150E070E0AD
:101D800060E02AE0C8010E945B0D5C016EE2C801C0
:101D90000E940B038A0D9B1DC80FD91FC814D904BC
:101DA00051F7F701458150E070E060E02AE0C8019A
:101DB0000E945B0D8C0F9D1FDF91CF911F910F91A2
:101DC000FF90EF90DF90CF90BF90AF909F908F905B
:101DD0000895EF92FF920F931F93CF93DF93FC012F
:101DE0001092CA02C2E7D2E0DE0130E020E02830E3
:101DF000310569F490E0983009F042C01092A801D2
:101E00001092A7011092CA0222E732E044C0CD012D
:101E1000825792400D911C9111970115110561F1A6
:101E200012964D915C9113974115510529F1E0806F
:101E3000F1800E151F0501F502811381401751072E
:101E4000D9F42093CA02DC01AA58BD4F86E0FB01F9
:101E500001900D928A95E1F78BE0829FF001839FBC
:101E6000F00D1124EE58FD4F1286DF91CF911F9196
:101E70000F91FF90EF9008952F5F3F4F1B96B7CFC4
:101E80009E0148815981452BB1F44A815B81452BE4
:101E900091F49093CA0284E0D90101900D928A9541
:101EA000E1F7D901149686E0FB0101900D928A9525
:101EB000E1F7F901D9CF9F5F2B969DCFEF92FF926B
:101EC0000F931F93CF93DF9300D000D000D0CDB7F6
:101ED000DEB74091CF015091D0014F3F540731F40C
:101EE0008091D1019091D201019619F180916E02F9
:101EF00090916F0260916602709167029B0120953C
:101F00003095282B392B42175307A9F520916802E9
:101F10003091690220953095E0917002F091710244
:101F20002E2B3F2BE091D101F091D201E217F30764
:101F300011F586E0EFE2F1E0A1EBB1E001900D9246
:101F40008A95E1F786E0ECE8F4E0A7EBB1E00190D8
:101F50000D928A95E1F788E090E09093BE0180931E
:101F6000BD018091A9019091AA010E969093AA01BA
:101F70008093A901A5C08427952786239723892BC1
:101F800099F42091D1013091D20180917002909109
:101F900071028227932760916802709169028623FB
:101FA0009723892B09F499C080916A0290916B0262
:101FB0009093AE018093AD0180916C0290916D027F
:101FC0009093B0018093AF01E090AD01F090AE012D
:101FD0000091AF011091B001E2E7F2E080E08830BB
:101FE00009F084C08093CA0246E050E06FEF70E0D1
:101FF00081EB91E00E942B2886E0E1EDF1E0DF012A
:10200000282F1D922A95E9F7ECE8F4E0A7EBB1E060
:10201000982F01900D929A95E1F7ECE8F4E0A7EC87
:10202000B1E0982F01900D929A95E1F7F092D801C6
:10203000E092D7011093DA010093D90120916E024A
:1020400030916F023093CE012093CD012091700228
:10205000309171023093D0012093CF0120E031E024
:102060003093C6012093C5013093C0012093BF0176
:1020700028E030E03093C2012093C1018093C30176
:1020800094E09093C40128E036E03093BE012093A1
:10209000BD0127EE31E03093AC012093AB012AE281
:1020A00030E03093AA012093A901BE016F5F7F4FFA
:1020B000DB011D928A95E9F78DEA91E00E94E90E15
:1020C00026960FB6F894DEBF0FBECDBFDF91CF913D
:1020D0001F910F91FF90EF9008955093AE014093A0
:1020E000AD013093B0012093AF016ECF20813181DB
:1020F000E216F306E1F42281338102171307B9F4E3
:102100009481911103C09581992329F08093CA028B
:10211000349686E011CF96819111F8CF9781911175
:10212000F5CF90859111F2CF91859111EFCF8F5F0F
:102130003B9655CFCF93DF93EC010E945E0F8091C9
:10214000A9019091AA018A9759F410929101809166
:1021500090018D7F80939001DF91CF910C94910835
:102160000E9491081D821C82DF91CF9108959C01ED
:10217000AB017093A6016093A5011616170654F4DF
:102180008091A3019091A4018217930719F0B901DE
:102190000C9422280895EF92FF920F931F93CF93F0
:1021A000DF93E0919A01F0919B01C185D285209740
:1021B00009F456C0E090A001E1FE1FC08A818111A0
:1021C0001CC08091D3019091D40197838683809124
:1021D000CB019091CC01918380838091CD0190912E
:1021E000CE01938382838091D7019091D801982763
:1021F00089279827089709F51A82E3FE31C08D8157
:10220000882371F18C81809391018091900182608B
:10221000809390018AE280938E01688179816B526C
:1022200071098091AB019091AC01DF91CF911F9129
:102230000F91FF90EF900C94B7100E941706F82EA4
:102240008A838823D1F20E9463048C012AE230E061
:1022500040918F0170E060E08F2D0E94B606CDCFD7
:10226000DF91CF911F910F91FF90EF900895AF9262
:10227000BF92CF92DF92EF92FF920F931F93CF9373
:10228000DF93E090A101F090A201F701C48DD58DFC
:10229000D090A001209761F5D6FC03C0F12CE12C71
:1022A000C1C0E5E1F2E090E080E0218121117CC035
:1022B00022E1289FE001299FD00D1124CB5EDD4F44
:1022C000FE0111922A95E9F7C701895F9240959521
:1022D00087954FEE5EEE849F9001859F300D949F11
:1022E000300D1124288381E08983F701D58FC48FB5
:1022F000D1FE32C00091A9011091AA01011511056A
:1023000059F189818823A9F181FD26C05E01F2E09F
:10231000AF0EB11CC12CF50181915F0181114BC041
:10232000C8010E941706F50131978083882309F4BC
:1023300042C02091AB013091AC01215B3140409112
:102340008F0170E060E00E94B606F4E0CF1204C096
:10235000F701818D8061818F898183FF0AC0877F2A
:1023600089838D2D82608093A001F701818D8F7EFE
:10237000818F8091A00184FD04C087FD02C085FF8C
:1023800026C0CE0107960E941B098A818823E9F0A6
:10239000F7018481958198878F83898184608983FF
:1023A000F701158E148E7ACF0196729684309105BE
:1023B00009F07BCF73CFC394F5E0CF12ACCF8091FF
:1023C00090018E7F80939001C3CF1982E9CF80FF67
:1023D0003FC0CE0107960E9431098F818823D1F139
:1023E0009885911145C0EC84FD84E114F10409F451
:1023F00055CF95E0899FF0011124E658FC4FF382F8
:10240000E2820091AB011091AC01015B114000939D
:102410008E011127C80108968E0D9F1D009779F532
:1024200010929101B7018091AB019091AC010E9493
:10243000B710F092AA01E092A901DF91CF911F910C
:102440000F91FF90EF90DF90CF90BF90AF900895E5
:102450008C7019F6898181FF21CF8F81811124C071
:102460001982F701158E148E80E18093A00116CF9A
:102470000E9463047C01892B09F410CFC2CF0E9413
:10248000170680939101882369F2B8016F5F7F4F2F
:10249000870130E020E04F810E94B60680919001D4
:1024A000826080939001BECFF701818D8061818F22
:1024B000F5CEAF92BF92CF92DF92EF92FF921F9331
:1024C000CF93DF93843009F458C1C091A101D0911A
:1024D000A20127EE31E03093AC012093AB013093A1
:1024E000A4012093A3018330C9F4898D8F708330B8
:1024F00009F044C088899989892B09F03FC088E098
:102500008093A0010E9437118091A00185FF13C61E
:102510001092A6011092A501198E51C0823009F0C7
:1025200005C180919F018F5F80939F01811113C02E
:1025300080919E018F5F80939E0181110CC08091DC
:102540009D018F5F80939D01811105C080919C0149
:102550008F5F80939C011092AA011092A9011092A2
:10256000A6011092A501898D982F9D7F953059F471
:102570008A8D8F5F8A8F883709F4198E1092AA018D
:102580001092A90131C28823C9F328893989232BE4
:1025900009F4C7C09A8D2FEF290F2A8F9111EECF22
:1025A0009B8D983031F02FEF280F223050F495306A
:1025B00041F4198E80E88093A0010E94371184E1D4
:1025C00084C0392F953008F034E023E001C0220F99
:1025D0003A95EAF72A8F9F5F9B8F8F70833009F4BB
:1025E0007DC008F06AC0813009F406C4823031F63B
:1025F0001092E0018091E00182608093E00182E02E
:102600008093E70194E09093E8018093E9011092B0
:10261000EA018CE290E09093AA018093A90180E600
:102620008093DF0188858093DB0189858093DC01BD
:102630008A858093DD018B858093DE018C85809374
:10264000D7018D858093D8018E858093D9018F85A0
:102650008093DA0186E08093C8018C819D819093FC
:10266000D4018093D3018E819F819093D601809372
:10267000D50180916E0290916F029093CC0180936E
:10268000CB0180917002909171029093CE01809362
:10269000CD01888199819093D0018093CF018A8167
:1026A0009B819093D2018093D101898D84FFC9C50C
:1026B0001092E2011092E101D5C2863029F08830F3
:1026C00019F0843009F05ACF81E18093E00188E26B
:1026D00090E09093AA018093A90121C084E08093A7
:1026E000A0010E9437118091A3019091A4019093C1
:1026F000AC018093AB018091A5019091A601892B3B
:1027000009F44AC588899989009709F445C58896CE
:102710009093AA018093A90188E18093E00180E56C
:102720007FCF8F70833009F029CFE9CE853009F053
:10273000A9C0E0919A01F0919B0184819581892B38
:1027400009F41CCF1092A2011092A1018BED91E02F
:102750009093AC018093AB019093A4018093A3016B
:102760001092A6011092A5011092AA011092A9013F
:1027700088E08093A0010E94CB108091A5019091E8
:10278000A601009709F4FACE9C01245E3F4F3093D6
:10279000AA012093A9013093C1012093C201E091C5
:1027A0009A01F0919B0120852093C70121E120939C
:1027B000C80108969827892798279093D801809375
:1027C000D7011092DA011092D901848195819093FA
:1027D000D4018093D301868197819093D601809311
:1027E000D50180916E0290916F029093CC018093FD
:1027F000CB0180917002909171029093CE018093F1
:10280000CD01808191819093D0018093CF0182810D
:1028100093819093D2018093D10187EE91E09093C0
:10282000AC018093AB0181E10E94F80780959095FF
:10283000009709F45BC19093DA018093D90185E494
:102840008093BF011092C0011092C6011092C50181
:1028500080919201909193010196909393018093BE
:1028600092019093C3018093C4011092CA01109207
:10287000C9010E948008809590959093CA01809329
:10288000C901B2C08091BF01853409F077CEC090F4
:10289000C101D12CDC2CCC248091C201C80ED11CEA
:1028A0008091A9019091AA018C159D0508F466CE2E
:1028B000D092AA01C092A9018091C5018F7309F03D
:1028C0005DCE1091C601111159CEA0906E02B0904C
:1028D0006F02A114B10439F48091700290917102D9
:1028E000892B09F441C02091CF013091D001809112
:1028F000C801813149F52F3F320739F48091D10168
:102900009091D201019609F47DC080916602909168
:102910006702809590958A299B2982179307A1F4D5
:102920008091680290916902809590954091700223
:1029300050917102842B952B4091D1015091D2017D
:102940004817590709F45EC0A216B30609F016CE5F
:102950002091D1013091D201809170029091710249
:102960002817390709F00ACE0E948008019609F05D
:1029700005CE8091C801863009F4BBC0813109F4CD
:1029800041C0813009F0FACD8091D301883009F03F
:10299000F5CD1092D3018091D5019091D601873F5A
:1029A0004FEF940768F109969093D6018093D50173
:1029B0008091CB019091CC019093D0018093CF0175
:1029C0008091CD019091CE019093D2018093D1015D
:1029D000B092CC01A092CB018091700290917102D3
:1029E0009093CE018093CD011092A001DF91CF9101
:1029F0001F91FF90EF90DF90CF90BF90AF90089520
:102A00000896D2CF8CE1C81AD108D092AA01C09200
:102A1000A9018BED91E09093AC018093AB01809183
:102A2000D9019091DA01892BE1F44091D5015091BF
:102A3000D6016091D3017091D401A091CB01B091E6
:102A4000CC01C091CD01D091CE01EBECF2E027EFAB
:102A500032E02E173F0761F430939B0120939A01D7
:102A60008DCD81E10E94F807019609F087CDDDCF79
:102A7000848195810097C1F184179507A9F5868116
:102A80009781009719F08617970771F580819181DA
:102A90000097D1F4E280F380EF28F1F4F0939B01EA
:102AA000E0939A011092A2011092A10182E080931A
:102AB000A0018BED91E09093A4018093A30110926B
:102AC000A6011092A50157CE8F3F980729F4E28006
:102AD000F380EF20E09411F38A179B0729F4828199
:102AE0009381C817D907D1F23B96B3CF8FEF9FEFF1
:102AF000A2CE86E00E94F807019609F03FCD4091F2
:102B0000D5015091D6016091D3017091D40180918B
:102B1000CB019091CC01E091CD01F091CE01C9EFB4
:102B2000D2E0298D2223A9F0AC81BD814A175B0731
:102B300081F4AE81BF816A177B0759F4A881B981FE
:102B40008A179B0731F4AA81BB81EA17FB0709F4B6
:102B50005BC16E9623E0C335D20719F310F3809161
:102B6000E0018F73823061F4509399014093980192
:102B7000E1E7F3E080E0843009F091C080937903CD
:102B80008091E00182FDFACC84E18093E00188E24B
:102B900090E09093AA018093A90180E58093DF01E2
:102BA0003091DA018091DE018093DA012091D90120
:102BB0008091DD018093D9012093DD019091D801AE
:102BC0008091DC018093D8019093DC018091D70142
:102BD000809379034091DB014093D7018093DB011F
:102BE0003F5F3093DE0131110DC02F5F2093DD0177
:102BF000211108C09F5F9093DC01911103C08F5F8A
:102C00008093DB018091D3019091D401909399013D
:102C1000809398012091D5013091D6013093D40151
:102C20002093D3019093D6018093D5018091CB015D
:102C30009091CC019093D0018093CF018091CD01F0
:102C40009091CE019093D2018093D101B092CC01AA
:102C5000A092CB0180917002909171029093CE016D
:102C60008093CD0180E48093C7018091A901909168
:102C7000AA019093C1018093C2011092E6011092C3
:102C8000E5011092E4011092E30186E00E94F8074A
:102C9000809590959093E4018093E301D0CD2191AC
:102CA00031918F5F4217530709F065CF1092790376
:102CB000E9EFF2E090E080E0D0E0C0E08430910500
:102CC00031F484E080937903209781F457CC3E2F30
:102CD0002F2FA18DA11163C0809379032EE1289F2E
:102CE000E001299FD00D1124C750DD4FD093A201E0
:102CF000C093A10183E08A8F888F1E8A84E08F8B26
:102D00001B8E5D834C837F836E838091CB0190917A
:102D1000CC01998388838091CD019091CE019B83D2
:102D20008A8381E0898F80919C018C8780919D01AD
:102D30008D8780919E018E8780919F018F8781E092
:102D400090E0998B888B8091DA018B878091D901F3
:102D50008A878091D80189878091D701888781E00F
:102D600090E00E94B0228091DF01982F907F9135F2
:102D700008F442C082958F708550990B880F991F77
:102D8000880F991FE12FF0E0E817F9072CF4EF54B2
:102D9000FE4F36A9311112C0109379032DC0A73010
:102DA00031F4209731F0B28DAA8DAB1710F03C2F83
:102DB0002D2F01967E96C32FD22F80CF313011F464
:102DC0001F5FE0CF27A93230D9F42430C9F4109323
:102DD000790380AD91AD8927982789279093990130
:102DE00080939801813042E0940710F080E092E0F7
:102DF0009B8B8A8B9D8B8C8B80E18093E001FACB3F
:102E0000222351F2120FBECFD093A201C093A10191
:102E10001092A0019091E00192FF07C0198E80E20C
:102E20008093A0010E943711A9CB8091DF01829588
:102E30008F70880F880F80937903C81AD1087601A4
:102E400084E1E81AF108F092AA01E092A9012F703A
:102E5000223021F4892F8F738231D1F0E114F104F3
:102E600019F4892F8370A1F039852A858B855091BB
:102E7000D70148855413C0C14091D8014313BCC148
:102E80003091D9013213B8C12091DA012813B4C1AD
:102E900094FF49C0688979896115710509F443C0B7
:102EA000CE010C960E947D223091DB01809194012D
:102EB000381339C02091DC0180919501281333C06B
:102EC0009091DD018091960198132DC08091DE01D3
:102ED00040919701841327C03C872D879E878F8759
:102EE000988D8B8D811118C08E892A8D921B282F69
:102EF000269526952695921B890F8E8B97FD919589
:102F00002F89322F36953695231B920F9F8B8695EE
:102F100086958695890F888F81E08093A001888DA2
:102F20008A8F198A188A298DE22FEF70E150E830D4
:102F300008F024CBF0E0E156F84E0C941C28A717BB
:102F4000C0172A18DF1808191919FC18D818809109
:102F5000A00180FF13CB83E0898F80E48093A001E0
:102F6000198A188AE114F10431F082E48093A001F7
:102F7000C7010E94B0221092A6011092A501C2CAF8
:102F80008091A00180FF5FC08091E0018F7382314A
:102F900009F059C08091DF01982F907F913598F109
:102FA00082958F708550990B880F991F880F991FF4
:102FB000E12FF0E0E817F9072CF4EF54FE4F36A9A3
:102FC000311103C0109379031EC0313011F41F5F1B
:102FD000EFCF27A9323099F5243089F51093790382
:102FE00080AD91AD89279827892790939901809387
:102FF0009801813012E0910710F080E092E09B8B05
:103000008A8B9D8B8C8B83E0898F8091D7018887F9
:103010008091D80189878091D9018A878091DA01CE
:103020008B8781E090E00E94B02282E48093A0012F
:10303000198A188A1092AA011092A9019CCF222302
:1030400009F2120FB5CF80E28093A0010E943711E0
:10305000198E96CD8091E00180FF20C024FD1EC016
:1030600088899989892B09F089CAC60143970E94EA
:10307000B0228091A001982F90619093A001EF2839
:1030800019F082618093A0010E94371181E090E0E5
:10309000998B888B88E0898F1B8E16CB85FF14C097
:1030A0008091E5019091E601982789279827AC0146
:1030B00049515E4F5093AC014093AB01E81AF90AB5
:1030C000F092AA01E092A9014091A9015091AA01B0
:1030D0009091A0014115510541F024FD06C0926078
:1030E0009093A001CA010E94B0228091E101282F93
:1030F00030E0322F22278091E201820F932F911D21
:1031000090939901809398012C893D89281739075C
:1031100010F0892B21F4309399012093980180912C
:103120009801909199019B8B8A8B8091A00183706B
:1031300009F424CA20CF84FF0AC01092A60110927D
:10314000A50181E090E0998B888B84E0A4CF209149
:10315000A5013091A60121153105B9F080FF02C00B
:10316000198A188A88899989009789F48A899B899C
:103170008217930720F49093A6018093A501809174
:10318000A5019091A601998B888B1B8EACCA909358
:10319000A6018093A501F9CF8091A00181FFEEC91E
:1031A00088E290E09093AA018093A90180E1B5CADA
:1031B0008091A00180FFE2C9198E80E131CEE11437
:1031C000F10419F0C7010E94B0228091A001817022
:1031D0009091E00190FF15C0882381F087E0898FEE
:1031E0001A8E198A188A81E090E00E94B02280E14C
:1031F0008093A0010E94371180E167CA86E0898F21
:10320000F2CF882399F085E0898F198A188AB6C988
:10321000E114F10419F0C7010E94B0228091E0018D
:1032200080FF04C087E0898F1A8EDDCFEF2821F759
:10323000A5C98091A00180FFA1C987E0898F1A8E5E
:103240009DC982E08093E1011092E2010BCDCF9302
:10325000DF93EC012C853D852115310529F490E0A3
:1032600080E0DF91CF910895EA89EE23C1F381E0F8
:103270008B8B85E0E89FF0011124E658FC4F8E858A
:103280009F8507969383828330939B0120939A01B5
:1032900085E00E9459128091A9019091AA01892B81
:1032A000F1F2CE010E960E949A1081E090E0D9CF03
:1032B0008F929F92AF92BF92CF92DF92EF92FF9246
:1032C000CF93DF9380918B04882309F41FC1D091A1
:1032D0008F01D11151C089E30E946B05882309F445
:1032E00049C060918304709184046B0126E0C20E92
:1032F000D11CC11438E0D30628F06B014AEFC41A80
:1033000047E0D40A80E00E94BB0460E08AE30E94A8
:103310004D05E82E60E08AE30E944D05F82EF092FC
:103320008404E092830460E08AE30E944D05B82E95
:1033300060E08AE30E944D05C82F60E08AE30E94A6
:103340004D05A82E40E46EE180E80E948304A7FEAC
:10335000E8C0E11458E0F50608F0E3C0D092860416
:10336000C09285049C2F8B2D0497909388048093A2
:103370008704DFEFD0938F01F0908F01FF2009F4D5
:1033800072C081E0809390018F2D0E946304EC0154
:103390009093AA018093A901892B09F4EFC042E61A
:1033A00050E061EB71E08F2D0E940705C090BD01D8
:1033B000D090BE0188E0C816D10409F0CDC0F092CB
:1033C00091012E97D093AA01C093A9012091CB011E
:1033D0003091CC01E0916E02F0916F02C9018E270D
:1033E0009F27409166025091670284239523892B81
:1033F00049F54091CD015091CE01609170027091DC
:103400007102CA0186279727A0916802B0916902CC
:103410008A239B23892BB1F48091CF019091D00115
:10342000E817F90709F080C08091D1019091D2018D
:103430006817790709F078C067EB71E08BEC91E0D1
:103440000E94E90E81E00E9459128091A901909199
:10345000AA01892B21F00E945E0F0E9491088091A1
:10346000900180FD8BC00E94FF026B017C01809166
:10347000920490919304A0919404B0919504460114
:103480005701881A990AAA0ABB0AC9EFD2E0D09359
:10349000A201C093A101B7FC08C182E00E945912A9
:1034A0008091A9019091AA01892B21F00E945E0FC1
:1034B0000E9491086E9633E0C137D30741F7B7FCFD
:1034C00025C04AEFC40ED11CE11CF11CC09292042D
:1034D000D0929304E0929404F0929504CBECD2E065
:1034E000D0939B01C0939A0185E00E94591280916C
:1034F000A9019091AA01892B21F089859A850E94C2
:103500009A102B9652E0C73FD50751F7DF91CF9124
:10351000FF90EF90DF90CF90BF90AF909F908F90F3
:1035200008950E94310526CFE2E7F2E080E088307E
:1035300019F48093CA0286CF6081718126173707FC
:1035400041F4628173814617570719F48093CA02C8
:1035500073CF8F5F3B96EBCF28E0C21626E0D206F2
:1035600069F41092AA011092A901AA9760F48091BF
:10357000A9019091AA01892B09F06FCF0E94310512
:1035800010928F0170CF8091C5019091C601811575
:1035900031E0930701F18115924049F72091D7015D
:1035A0003091D80180916E0290916F0228173907EF
:1035B000F1F62091D9013091DA0180917002909159
:1035C00071022817390799F667EC71E08DEC91E0EC
:1035D0000E94E90ECCCFE090D701F090D801809105
:1035E0006E0290916F02E816F90609F6C091D901B2
:1035F000D091DA018091700290917102C817D907B9
:1036000009F0B5CF67EC71E08DEC91E00E94E90E16
:1036100080E092E09093C6018093C50186E0E7ECDC
:10362000F1E0A1EDB1E001900D928A95E1F786E01D
:10363000ECE8F4E0A7ECB1E001900D928A95E1F797
:1036400086E0ECE8F4E0A7EBB1E001900D928A95FA
:10365000E1F786E0E1EDF1E0A1EBB1E001900D9240
:103660008A95E1F78091CD019091CE019093D80198
:103670008093D7018091CF019091D0019093DA018E
:103680008093D901F092CE01E092CD01D093D00188
:10369000C093CF01D092BE01C092BD018AE290E0FA
:1036A0009093AA018093A90162CFEC8DFD8D309794
:1036B00009F400CF86859785A089B189A701960175
:1036C000281B390B4A0B5B0BDA01C901B7FDF2CE9F
:1036D00083E00E9459120E94FF02E091A101F09143
:1036E000A201048CF58DE02D665F7F4F8F4F9F4FB9
:1036F00066877787808B918BD3CECF93DF93EC0156
:103700000E94581989890E944304198ADF91CF9138
:1037100008950F931F93CF93DF931F92CDB7DEB71A
:103720008C010E945819F8018189882389F041E0B1
:1037300050E0BE016F5F7F4F0E940705019741F483
:10374000898190E00F90DF91CF911F910F910895A3
:103750008FEF9FEFF7CFEF92FF920F931F93CF93CF
:10376000DF937C018B01EA010E945819F7018189DE
:10377000882369F1AE01B8010E9407058C01F701A9
:10378000C1898C2F0E9463048017910769F48C2FE4
:103790000E944304F701118AC801DF91CF911F9164
:1037A0000F91FF90EF90089585E0C89FF0011124DC
:1037B000E658FC4F80819181800F911F9183808317
:1037C00082819381801B910B93838283E5CF80E07C
:1037D00090E0E3CFCF93DF93EC010E9458198989E1
:1037E000DF91CF910C946304CF93DF93EC010E949F
:1037F0005819898981110E9443048889898B188A04
:10380000DF91CF910C946304CF92DF92EF92FF92FD
:103810000F931F93CF93DF9300D000D0CDB7DEB7C7
:103820008C017B016A010E945819D70112968C9174
:10383000129781110EC013968C911397811109C0B4
:1038400014968C911497811104C015968C9188233D
:10385000E9F0C114D104D1F0D8011C96ED91FC918E
:10386000D70112962D913C9113973A832983149690
:103870008D919C919C838B837C2D6D2D309779F15C
:10388000778366833183208393838283F8018485E1
:103890009585892BB1F18289811133C08EE096E044
:1038A0000E941706D80152968C9352972BE230E073
:1038B0001F963C932E931E9721E090E0811101C04A
:1038C00020E0822F0F900F900F900F90DF91CF91FB
:1038D0001F910F91FF90EF90DF90CF900895CE0150
:1038E00001960E94840CF80195878487009749F01F
:1038F0009801225F3F4FDC011A963C932E93199753
:10390000C5CF80E090E0DECF4F925F926F927F92C2
:103910008F929F92AF92BF92CF92DF92EF92FF92DF
:103920000F931F93CF93DF93CDB7DEB763970FB697
:10393000F894DEBF0FBECDBF6C017B013A01FB01E5
:10394000DB018D91882309F444C08E32D1F380537A
:103950008A30B8F3F6014281538164817581809188
:10396000A6059091A705A091A805B091A9054817B3
:1039700059076A077B0709F455C28601085F1F4F84
:103980000E94FF026F7077277C5FC8010E94EE0CD7
:10399000813009F04CC28DE791E09A838983F6016A
:1039A00082819381A481B5818B839C83AD83BE8307
:1039B00045E350E0BE016F5F7F4FC8010E94041CC9
:1039C000892B09F057C0F12CE12CC8010E94130D7E
:1039D00039C030E020E090E080E05AE0419144239B
:1039E00009F1843091050CF0B5CF4E3271F42F3FC0
:1039F000310511F00CF0AECFD301A80FB91F12960C
:103A00002C93019630E020E0E9CF529FB001539F04
:103A1000700D1124242F440F330B20533109260F2E
:103A2000371FDCCF2F3F310511F00CF093CF8430DE
:103A300091050CF08FCF680E791EF3012283EE24DE
:103A4000E394F12CC70163960FB6F894DEBF0FBE66
:103A5000CDBFDF91CF911F910F91FF90EF90DF903D
:103A6000CF90BF90AF909F908F907F906F905F901E
:103A70004F9008950E94FF02F6017783668342E02B
:103A800050E0B6016A5F7F4FC8010E947B0781E06A
:103A900090E09A83898342E050E0BE016F5F7F4FE0
:103AA000C8010E947B0780E091E09A83898342E00D
:103AB00050E0BE016F5F7F4FC8010E947B071A82F2
:103AC000198242E050E0BE016F5F7F4FC8010E9443
:103AD0007B0742E050E0BE016F5F7F4FC8010E944C
:103AE0007B0742E050E0BE016F5F7F4FC8010E943C
:103AF0007B075701F7018081882301F17501F701E8
:103B000081912F01882311F08E32B1F447018A1878
:103B10009B081814190474F48D8641E050E0BE012E
:103B2000635F7F4FC8010E947B07A401B501C801F4
:103B30000E947B075201DECF7201E1CF1D8641E07A
:103B400050E0BE01635F7F4FC8010E947B07E12CFC
:103B5000FF24F394FA82E98242E050E0BE016F5FF5
:103B60007F4FC8010E947B07FA82E98242E050E061
:103B7000BE016F5F7F4FC8010E947B07C8010E9492
:103B80002719892B09F41FCFA3E0AA2EB12C2301FA
:103B900022E0420E511C26C0F601628073808480B0
:103BA0009580B801CE0101960E9438078B819C81D7
:103BB000AD81BE81681679068A069B0629F4C80184
:103BC0000E942907C59759F1FEEFEF2EFF24FA94C2
:103BD000E1E0AE1AB10809F4F8CEFFEFEF16FF06E8
:103BE00009F0F3CE0E94FF023B014C01C8010E9484
:103BF000F41B1816190684F20E94FF026619770951
:103C000088099909693873418105910508F001C156
:103C100062E370E080E090E00E94CD02E7CFC8014F
:103C20000E94EA1B0C970CF4F8C04CE050E0BE0177
:103C30006F5F7F4FC8010E94950A8B819C819827F6
:103C4000892798279A8B898BF6014681578129818C
:103C50003A814217530711F497FD08C0C8010E942A
:103C60007D1BECEFEE2EFF24FA94B2CF8F70927092
:103C7000892B41F0C8010E947D1B7BEFE72EFF24BA
:103C8000FA94A6CF6F807884762467247624F12C6A
:103C9000E12C61147104D1F4C8010E947D1B6AEF0C
:103CA000E62EFF24FA9494CF8D85811117C0C801A8
:103CB0000E945E07C8010E945E07C8010E945E075D
:103CC000C8010E945E07FFEFEF1AFF0A8D819E81F7
:103CD000982789279827E816F906A8F441E050E0CC
:103CE000BE01635F7F4FC8010E94950A8D858823BE
:103CF000D9F28D859FEF980F9D878823A9F2C8017F
:103D00000E945E07F6CF912C812C41E050E0BE016D
:103D10006D5E7F4FC8010E94950A8B89982F907C19
:103D200061F4882389F08B899FEF980F9B8B882300
:103D300041F0C8010E945E07F6CFC8010E945E07ED
:103D40001B8A8B898111E1CF42E050E0BE01615FA7
:103D50007F4FC8010E94950A42E050E0BE01635FB8
:103D60007F4FC8010E94950AC8010E945E07C801E2
:103D70000E945E07C8010E945E07C8010E945E079C
:103D800042E050E0BE016F5E7F4FC8010E94950A7D
:103D90008F85988981159140E1F48D859E858115E7
:103DA0009140B9F489899A898115944041F0C801FC
:103DB0000E947D1B57EFE52EFF24FA9409CF44E0C3
:103DC00050E0B201C8010E94950AEE24E394F12C60
:103DD000FFCEF12CE12C89899A8998278927982789
:103DE000E816F90638F4C8010E945E072FEFE21AC0
:103DF000F20AF1CF8FEF881A980A8614970409F017
:103E000084CFC8010E947D1B36EFE32EFF24FA9475
:103E1000DFCEEE24EA94FE2CDBCE9DEFE92EFF24CC
:103E2000FA94D6CE8EEFE82EFF24FA940BCEF12C26
:103E3000E12C08CEAF92BF92CF92DF92EF92FF9229
:103E40000F931F93CF93DF93CDB7DEB7A8970FB62D
:103E5000F894DEBF0FBECDBF7C015B016A010DE7A8
:103E600011E01A8309831B821C821D821E82CE01EF
:103E700009960E94340D1CA30BA31DA21EA21FA213
:103E800018A68091940590919505A0919605B09102
:103E900097058F8F98A3A9A3BAA38B839C83AD8327
:103EA000BE8318861F82AE014D5D5F4FB501CE0106
:103EB00001960E94841C81309105B1F4D701ED91E7
:103EC000FC910488F589E02D1E8F0D8F8DA19EA198
:103ED000AFA1B8A58F8F98A3A9A3BAA3A601BE01CD
:103EE000635E7F4FC7010995A8960FB6F894DEBFB1
:103EF0000FBECDBFDF91CF911F910F91FF90EF903B
:103F0000DF90CF90BF90AF900895AF92BF92CF92C5
:103F1000DF92EF92FF920F931F93CF93DF93CDB772
:103F2000DEB7A8970FB6F894DEBF0FBECDBF7C01F9
:103F30005B016A010DE711E01A8309831B821C8271
:103F40001D821E82CE0109960E94340D1CA30BA374
:103F50001DA21EA21FA218A68091940590919505FE
:103F6000A0919605B09197058B839C83AD83BE830A
:103F700018861F82AE014D5D5F4FB501CE010196DF
:103F80000E94841C81309105B1F4D701ED91FC9120
:103F90000684F785E02D1E8F0D8F8DA19EA1AFA108
:103FA000B8A58F8F98A3A9A3BAA3A601BE01635E8B
:103FB0007F4FC7010995A8960FB6F894DEBF0FBED4
:103FC000CDBFDF91CF911F910F91FF90EF90DF90C8
:103FD000CF90BF90AF900895CF93DF93EC014C81C9
:103FE0005D81A1E7B3E090E080E0282F8430910567
:103FF00021F484E0809379030EC0FC016D917D91E2
:104000000196672B91F720937903EE0FFF1FEF586E
:10401000FC4F518340830E94581981E08E83DF91C9
:10402000CF910895CF93DF93EC010E945819EC854E
:10403000FD8587818823D9F0DF01189621E08D91D5
:10404000811110C0215030E0322F2227330F848598
:104050009585280F391F80E09AE0821B930BDF9132
:10406000CF9108952F5F253051F724E0ECCF80E009
:104070009AE0F5CFAF92BF92CF92DF92EF92FF928C
:104080000F931F93CF938C015B017A016A010E9409
:1040900058190115110509F45DC0F80181818823C3
:1040A00009F458C0867009F055C03896C1E0819176
:1040B000811133C0C150F801EC0FF11D87818111CE
:1040C0000DC080E092E00E941706F801EC0FF11D90
:1040D00087838823E1F2F80115861486A7014C191D
:1040E0005D094A0D5B1DF801648575859601EC0F2D
:1040F000F11D87810E94E706C81AD90AF8012485B4
:104100003585820F931F958784871C141D0454F4F2
:10411000C43009F4BCCFCF5FD4CFCF5FC53039F600
:10412000C4E0C9CF0E94FF02665F7F4F8F4F9F4F51
:10413000F80166877787808B918BC7018C199D0961
:10414000CF911F910F91FF90EF90DF90CF90BF9094
:10415000AF90089590E080E0F3CF9F92AF92BF922E
:10416000CF92DF92EF92FF920F931F93CF93DF9343
:104170008C017B016A01C5E1D2E0B12CA12C8EE15A
:10418000982E898180FF15C0E8819E9EF001112440
:10419000E750FD4F24813581F801848195812817EE
:1041A000390739F4A601B701CE010E943A20A80EC2
:1041B000B91E6296F2E0CD35DF0718F3C501DF9135
:1041C000CF911F910F91FF90EF90DF90CF90BF9014
:1041D000AF909F900895FC01848595850C943A20BA
:1041E000CF93DF931F92CDB7DEB7698341E050E0F4
:1041F000BE016F5F7F4FFC01848595850E943A2048
:104200000F90DF91CF910895CF93DF93EC010E943F
:104210005819EC85FD85309739F0818182FF08C0FF
:1042200081E09281911101C080E0DF91CF910895EA
:1042300081E0FBCFCF93DF93EC018C859D850097C8
:1042400069F0FC012181222349F002960E941B099A
:10425000EC85FD85818182FF07C011821D861C8649
:10426000DF91CF910C94581982608183F7CFCF9260
:10427000DF92EF92FF920F931F93CF93DF938C0106
:10428000EB016A01DC01ED91FC910488F589E02DD8
:104290000995EA80FB806C817D815C2D4D2D80919C
:1042A000F7029091F80201968115BDE79B0710F087
:1042B00080E090E1382F292FE9EFF2E0DF01C0E044
:1042C000C430D1F49093F8028093F70210927903EE
:1042D00080E0D0E0C0E08430F1F48093790320974F
:1042E00011F590E080E0DF91CF911F910F91FF9049
:1042F000EF90DF90CF9008955996DC915997DD2388
:1043000039F01496CD90DC901597C216D30659F269
:10431000CF5F5E96D5CFAE2F9F2FB18DB1113CC030
:1043200080937903EF0182E0898F80919C018C87D3
:1043300080919D018D8780919E018E8780919F0144
:104340008F8780E092E09B8B8A8B9D8B8C8B81E0AA
:1043500090E0998B888B1B8E8A8F83E0888F1E8AD2
:1043600080E18F8B3D832C835F834E83F982E882CB
:104370007B836A83898D8F7009F4B3CF0E945819AB
:10438000898D8F708330B1F78C8D9D8DF801958765
:10439000848781E090E0A7CFB73031F4209731F0E7
:1043A000D28CBA8DBD1510F0AC2F9D2F8F5F7E96ED
:1043B000CA2FD92F90CF1F920F920FB60F921124B0
:1043C0002F933F938F939F93AF93BF9380915E0200
:1043D00090915F02A0916002B091610230915D0204
:1043E00023E0230F2D3758F50196A11DB11D209311
:1043F0005D0280935E0290935F02A0936002B0938F
:1044000061028091620290916302A0916402B09176
:1044100065020196A11DB11D809362029093630213
:10442000A0936402B0936502BF91AF919F918F9169
:104430003F912F910F900FBE0F901F90189526E877
:10444000230F0296A11DB11DD2CF1F920F920FB65E
:104450000F9211242F933F934F935F936F937F930A
:104460008F939F93AF93BF93EF93FF9386E994E06D
:104470000E94B403FF91EF91BF91AF919F918F91F3
:104480007F916F915F914F913F912F910F900FBE50
:104490000F901F9018951F920F920FB60F92112434
:1044A0002F938F939F93EF93FF93E091A604F09146
:1044B000A7048081E091AC04F091AD0482FD1BC0A3
:1044C00090818091AF048F5F8F732091B004821729
:1044D00041F0E091AF04F0E0EA56FB4F958F8093F6
:1044E000AF04FF91EF919F918F912F910F900FBE8D
:1044F0000F901F9018958081F4CFFC013381360F07
:1045000030939701A72FBB2792819A0F9093960122
:104510002181209395014081409394019A171B06B5
:1045200048F481E0820F80939501811103C04F5FB1
:104530004093940177273617170688F49F5F90936E
:10454000960191110CC0809195018F5F8093950128
:10455000811105C0809194018F5F8093940108952B
:10456000CF93DF93C091A101D091A201BC01CE01F4
:1045700008960E947D22E4E9F1E0808188878181AC
:10458000898782818A8783818B87DF91CF91089584
:10459000CF93DF93E6E9F4E01382128288EE93E092
:1045A000A0E0B0E084839583A683B7838BE591E098
:1045B0009183808385EC90E09587848784EC90E0FC
:1045C0009787868780EC90E0918B808B81EC90E0E0
:1045D000938B828B82EC90E0958B848B86EC90E0C1
:1045E000978B868B118E128E138E148EE3E3F5E07B
:1045F000CDE7D1E0D183C083128213821482158269
:10460000E9E3F5E0D183C08312821382148215821C
:10461000E8E9F5E0D183C083128213821482158207
:10462000E2E9F5E0D183C0831282138214821582FD
:104630008EE795E00E94340DEEE9F5E0D183C0836A
:104640001282138214821582E4EAF5E0D183C083DA
:104650001282138214821582EAEAF5E0D183C083C4
:104660001282138214821582E3ECF5E0D183C083B9
:104670001282138214821582EDEBF5E0D183C083A0
:1046800029EA22839EEF93838BE3848334E035838E
:10469000E7EBF5E0D183C08322839383848383E0B7
:1046A0008583E0EBF5E0138212828DE691E0918341
:1046B000808380E090E5958384831682DF91CF919B
:1046C0000895CF93DF93CDB7DEB764970FB6F89414
:1046D000DEBF0FBECDBF789484B5826084BD84B543
:1046E000816084BD85B5826085BD85B5816085BDED
:1046F00080916E00816080936E00109281008091A5
:10470000810082608093810080918100816080932C
:104710008100809180008160809380008091B10051
:1047200084608093B1008091B00081608093B0007C
:1047300080917A00846080937A0080917A00826010
:1047400080937A0080917A00816080937A008091D2
:104750007A00806880937A001092C100E091A604EC
:10476000F091A70482E08083E091A204F091A30479
:104770001082E091A404F091A5048FEC8083109244
:10478000AE04E091AA04F091AB0486E08083E0914E
:10479000A804F091A904808180618083E091A8043D
:1047A000F091A904808188608083E091A804F09151
:1047B000A904808180688083E091A804F091A90415
:1047C00080818F7D80830DE711E01A8309838091BA
:1047D000B9059091BA05A091BB05B091BC058B833A
:1047E0009C83AD83BE83188B0F878091BF0590910A
:1047F000C005A091C105B091C205898B9A8BAB8B86
:10480000BC8BBE016F5F7F4FCE010F960E949C0A4A
:1048100080EB95E00E94EC1F61E084E00E9477024B
:1048200061E085E00E94770261E086E00E94770205
:1048300061E087E00E94770260E08EE00E947702EC
:1048400086E994E00E94A70D6BEC71E086E994E0A4
:104850000E94120330916E0220916F0290917002BB
:10486000809171021A8309833B832C839D838E83FD
:1048700066E974E0CE0101960E94A30E86E994E0F9
:104880000E94A70D86E994E00E94A70D64EB71E0F9
:1048900086E994E00E94AB0D6EE971E086E994E050
:1048A0000E94AB0D86E994E00E94A70D63E971E0D8
:1048B00086E994E00E94AB0D60E771E086E994E040
:1048C0000E94AB0D65E571E086E994E00E94AB0DB6
:1048D00065E371E086E994E00E94AB0D61E171E06F
:1048E00086E994E00E94AB0D86E994E00E94A70D52
:1048F00066E071E086E994E00E94AB0D6DED70E03A
:1049000086E994E00E94AB0D62EC70E086E994E0E9
:104910000E94AB0D61EA70E086E994E00E94AB0D65
:104920006FE770E086E994E00E94AB0D68E670E006
:1049300086E994E00E94AB0D80E4382E9EE1292E9A
:1049400020E0822E20E0922E38EE432E33E0532ECC
:10495000612C712C49E3A42E41E0B42E30927C00EE
:1049600080917A00806480937A0080917A0086FD3D
:10497000FCCF6091780070917900072E000C880BB5
:10498000990B0E94F5262AE038E240EA5BE30E9498
:10499000AA2720E030E048EC52E40E94AA276B01ED
:1049A0007C0167EA73E086E994E00E94120322E04A
:1049B000B701A60186E994E00E94BD0D64EA73E0A8
:1049C00086E994E00E94AB0D11E020E030E040EF7A
:1049D00051E4C701B6010E94A52718160CF010E09B
:1049E000612F84E00E942B0211E020E030E04CE0D7
:1049F00052E4C701B6010E94A52718160CF010E07A
:104A0000612F85E00E942B0211E020E030E040E2BF
:104A100052E4C701B6010E94A52718160CF010E059
:104A2000612F86E00E942B0211E020E030E044E399
:104A300052E4C701B6010E94A52718160CF010E039
:104A4000612F87E00E942B020E9458198091B405C3
:104A50009091B505E5E1F2E022812223C9F121819F
:104A600020FF0CC0A0812A9ED0011124A750BD4F69
:104A700014964D915C914817590739F022FF28C0D0
:104A8000278130858217930719F51C821B824D827E
:104A90005E826F827886BA82A982FE87ED87CE0118
:104AA00001960E940421082F811123C068EE73E053
:104AB00080E090E00E94CD028114910409F44ECF71
:104AC0000E94A003882309F449CF0E94000046CF2A
:104AD000729622E0ED35F20708F4BECF1C821B82ED
:104AE0004D825E826F827886BA82A9821E861D867A
:104AF000D6CF102F03C08D3009F010E0CE01019603
:104B00000E947B0A882379F1CE0101960E943B0A1C
:104B1000892BA1F3CE0101960E9482098A3059F7B0
:104B2000112339F304E012E0F8016491CE010196FB
:104B30000E94F0200F5F1F4FF3E0033A1F07A1F719
:104B400064EF71E0CE0101960E94120322E0B701EA
:104B5000A601CE0101960E94BD0D69ED71E0CE0166
:104B600001960E94AB0D61E070E080E090E00E9451
:104B7000CD02CE0101960E941A2198CFA1E21A2EF1
:104B8000AA1BBB1BFD010DC0AA1FBB1FEE1FFF1FF1
:104B9000A217B307E407F50720F0A21BB30BE40B41
:104BA000F50B661F771F881F991F1A9469F7609588
:104BB0007095809590959B01AC01BD01CF01089542
:104BC0005058BB27AA270E94F8250C946B270E94F7
:104BD0005D2738F00E94642720F039F49F3F19F4D4
:104BE00026F40C945A270EF4E095E7FB0C94542716
:104BF000E92F0E947C2758F3BA17620773078407CE
:104C0000950720F079F4A6F50C949E270EF4E09514
:104C10000B2EBA2FA02D0B01B90190010C01CA0176
:104C2000A0011124FF27591B99F0593F50F4503E21
:104C300068F11A16F040A22F232F342F4427585F13
:104C4000F3CF469537952795A795F0405395C9F72B
:104C50007EF41F16BA0B620B730B840BBAF09150E3
:104C6000A1F0FF0FBB1F661F771F881FC2F70EC082
:104C7000BA0F621F731F841F48F487957795679555
:104C8000B795F7959E3F08F0B0CF9395880F08F041
:104C90009927EE0F9795879508950E94302708F47D
:104CA00081E008950E9466260C946B270E94642779
:104CB00058F00E945D2740F029F45F3F29F00C94E2
:104CC000542751110C949F270C945A270E947C273B
:104CD00068F39923B1F3552391F3951B550BBB272B
:104CE000AA2762177307840738F09F5F5F4F220F70
:104CF000331F441FAA1FA9F335D00E2E3AF0E0E867
:104D000032D091505040E695001CCAF72BD0FE2FB0
:104D100029D0660F771F881FBB1F26173707480744
:104D2000AB07B0E809F0BB0B802DBF01FF279358FC
:104D30005F4F3AF09E3F510578F00C9454270C9445
:104D40009F275F3FE4F3983ED4F386957795679568
:104D5000B795F7959F5FC9F7880F911D9695879531
:104D600097F90895E1E0660F771F881FBB1F621750
:104D700073078407BA0720F0621B730B840BBA0B0E
:104D8000EE1F88F7E09508950E94842788F09F57CA
:104D900098F0B92F9927B751B0F0E1F0660F771F5F
:104DA000881F991F1AF0BA95C9F714C0B13091F055
:104DB0000E949E27B1E008950C949E27672F782FBC
:104DC0008827B85F39F0B93FCCF38695779567951A
:104DD000B395D9F73EF490958095709561957F4F86
:104DE0008F4F9F4F0895E89409C097FB3EF490952C
:104DF0008095709561957F4F8F4F9F4F9923A9F0B4
:104E0000F92F96E9BB279395F69587957795679542
:104E1000B795F111F8CFFAF4BB0F11F460FF1BC086
:104E20006F5F7F4F8F4F9F4F16C0882311F096E919
:104E300011C0772321F09EE8872F762F05C06623C7
:104E400071F096E8862F70E060E02AF09A95660F80
:104E5000771F881FDAF7880F9695879597F9089539
:104E6000990F0008550FAA0BE0E8FEEF161617067B
:104E7000E807F907C0F012161306E407F50798F0E3
:104E8000621B730B840B950B39F40A2661F0232BFC
:104E9000242B252B21F408950A2609F4A140A69578
:104EA0008FEF811D811D089597F99F6780E870E05D
:104EB00060E008959FEF80EC089500240A94161690
:104EC000170618060906089500240A9412161306F8
:104ED000140605060895092E0394000C11F4882386
:104EE00052F0BB0F40F4BF2B11F460FF04C06F5FA2
:104EF0007F4F8F4F9F4F089557FD9058440F551F78
:104F000059F05F3F71F04795880F97FB991F61F04B
:104F10009F3F79F087950895121613061406551FC2
:104F2000F2CF4695F1DF08C0161617061806991F2E
:104F3000F1CF86957105610508940895E894BB2723
:104F400066277727CB0197F908950E94302708F448
:104F50008FEF08950E94BD270C946B270E945D2758
:104F600038F00E94642720F0952311F00C94542708
:104F70000C945A2711240C949F270E947C2770F3CD
:104F8000959FC1F3950F50E0551F629FF001729FEE
:104F9000BB27F00DB11D639FAA27F00DB11DAA1FFD
:104FA000649F6627B00DA11D661F829F2227B00D4A
:104FB000A11D621F739FB00DA11D621F839FA00DD5
:104FC000611D221F749F3327A00D611D231F849F25
:104FD000600D211D822F762F6A2F11249F5750407C
:104FE0009AF0F1F088234AF0EE0FFF1FBB1F661FF7
:104FF000771F881F91505040A9F79E3F510580F0C0
:105000000C9454270C949F275F3FE4F3983ED4F30D
:10501000869577956795B795F795E7959F5FC1F763
:10502000FE2B880F911D9695879597F908950E94FC
:105030003027880B990B0895EE0FFF1F0590F49110
:10504000E02D0994FB01DC0102C001900D9241505A
:105050005040D8F70895DC0101C06D934150504095
:08506000E0F70895F894FFCF7A
:10506800FFDEADBEEFFEED0000000093077B07D02A
:10507800077D1BEA1B5E07891BEE0CA907130D04AD
:105088001C1A1F2719F41BAB1B950A38072907FFA1
:10509800FFFFFFFFFF00000000F020EB201220437D
:1050A800093B0A820958093721851F9F091A217B64
:1050B8000A0421690A8B0A00000000D6033603633C
:1050C80003230494037203860300000000AB07ADBA
:1050D80020D007CF07EC1FC10700000000A30E0D6A
:0E50E8000A006E616E00696E66006F766600EB
:00000001FF
